:020000040800F2
:10000000FF4F0020D514000819140008251400081B
:100010002B140008311400083714000800000000F9
:100020000000000000000000000000003D14000877
:10003000491400080000000055140008611400086D
:100040001D1500081D1500081D1500081D150008C8
:100050001D1500081D1500081D1500081D150008B8
:100060001D1500081D1500081D1500081D150008A8
:100070001D1500081D1500081D1500081D15000898
:100080001D1500081D1500081D1500081D15000888
:100090001D1500081D1500081D1500081D15000878
:1000A0001D1500081D1500081D1500081D15000868
:1000B0001D1500081D1500081D1500081D15000858
:1000C0001D1500081D1500081D1500081D15000848
:1000D0001D1500081D1500081D1500081D15000838
:1000E0001D1500081D1500081D1500080000000062
:1000F0000000000000000000000000000000000000
:0C01000000000000000000005FF808F1A3
:10010C0010B5054C237833B9044B13B10448AFF345
:10011C0000800123237010BD0C00002000000000A3
:10012C007815000808B5034B1BB103490348AFF31E
:10013C00008008BD000000001000002078150008A9
:10014C0080F0004002E000BF81F0004142001FBF80
:10015C005FEA410392EA030F7FEA226C7FEA236C89
:10016C006AD04FEA1262D2EB1363C1BFD21841407E
:10017C0048404140B8BF5B42192B88BF704710F014
:10018C00004F40F4000020F07F4018BF404211F0B7
:10019C00004F41F4000121F07F4118BF494292EA1F
:1001AC00030F3FD0A2F1010241FA03FC10EB0C004B
:1001BC00C3F1200301FA03F100F0004302D54942D8
:1001CC0060EB4000B0F5000F13D3B0F1807F06D385
:1001DC0040084FEA310102F10102FE2A51D2B1F17D
:1001EC00004F40EBC25008BF20F0010040EA030072
:1001FC007047490040EB000010F4000FA2F101021F
:10020C00EDD1B0FA80FCACF1080CB2EB0C0200FAA8
:10021C000CF0AABF00EBC25052421843BCBFD040F6
:10022C001843704792F0000F81F4000106BF80F470
:10023C0000000132013BB5E74FEA41037FEA226C33
:10024C0018BF7FEA236C21D092EA030F04D092F0FE
:10025C00000F08BF0846704790EA010F1CBF002032
:10026C00704712F07F4F04D1400028BF40F000408F
:10027C00704712F100723CBF00F50000704700F0AF
:10028C00004343F0FE4040F4000070477FEA2262D6
:10029C0016BF08467FEA23630146420206BF5FEAA7
:1002AC00412390EA010F40F4800070474FF00003A7
:1002BC0004E000BF10F0004348BF40425FEA000C6E
:1002CC0008BF704743F0964301464FF000001CE016
:1002DC0050EA010208BF70474FF000030AE000BF6C
:1002EC0050EA010208BF704711F0004302D54042AA
:1002FC0061EB41015FEA010C02BF8446014600201C
:10030C0043F0B64308BFA3F18053A3F50003BCFA36
:10031C008CF2083AA3EBC25310DB01FA02FC6344E3
:10032C0000FA02FCC2F12002BCF1004F20FA02F2EA
:10033C0043EB020008BF20F00100704702F12002DD
:10034C0001FA02FCC2F1200250EA4C0021FA02F23E
:10035C0043EB020008BF20EADC70704780B500AFA9
:10036C00084B1B68074A43F010031360032000F08E
:10037C0007F9002000F008F801F016F800231846E1
:10038C0080BD00BF0020024080B582B000AF786015
:10039C00124B1A68124B1B7819464FF47A73B3FB45
:1003AC00F1F3B2FBF3F3184600F011F90346002BFE
:1003BC0001D001230EE07B680F2B0AD8002279684C
:1003CC004FF0FF3000F0E7F8064A7B68136000231B
:1003DC0000E0012318460837BD4680BD0800002008
:1003EC00040000200000002080B400AF054B1B78F7
:1003FC001A46054B1B681344034A136000BFBD46E5
:10040C0080BC7047040000203400002080B400AF92
:10041C00024B1B681846BD4680BC70473400002058
:10042C0080B485B000AF78607B6803F00703FB6095
:10043C000C4BDB68BB60BA684FF6FF031340BB6024
:10044C00FB681A02BB68134343F0BF6343F40033E9
:10045C00BB60044ABB68D36000BF1437BD4680BC88
:10046C00704700BF00ED00E080B400AF044BDB68C8
:10047C001B0A03F007031846BD4680BC704700BF3B
:10048C0000ED00E080B483B000AF03463960FB712F
:10049C0097F90730002B0BDA3B68DAB20C49FB7981
:1004AC0003F00F03043B1201D2B20B441A7609E09D
:1004BC003B68DAB2074997F907301201D2B20B4404
:1004CC0083F8002300BF0C37BD4680BC704700BFCB
:1004DC0000ED00E000E100E080B489B000AFF8600E
:1004EC00B9607A60FB6803F00703FB61FB69C3F139
:1004FC000703042B28BF0423BB61FB690433062BC1
:10050C0002D9FB69033B00E000237B614FF0FF3213
:10051C00BB6902FA03F3DA43BB681A407B699A4061
:10052C004FF0FF317B6901FA03F3D9437B680B4031
:10053C00134318462437BD4680BC704780B582B043
:10054C0000AF78607B68013BB3F1807F01D301235E
:10055C000FE00A4A7B68013B53600F214FF0FF30DC
:10056C00FFF790FF054B00229A60044B07221A609C
:10057C00002318460837BD4680BD00BF10E000E0E0
:10058C0080B582B000AF78607868FFF749FF00BF94
:10059C000837BD4680BD80B586B000AF0346B96054
:1005AC007A60FB7300237B61FFF75EFF78617A68EA
:1005BC00B9687869FFF790FF024697F90F3011463A
:1005CC001846FFF75FFF00BF1837BD4680BD80B5EA
:1005DC0082B000AF78607868FFF7B0FF034618462A
:1005EC000837BD4680BD000080B48BB000AF78608A
:1005FC0039600023FB610023BB6100237B61002376
:10060C003B6200233B6100237B6227E101227B6A72
:10061C0002FA03F3FB613B681B68FA691340BB6188
:10062C00BA69FB699A4240F016813B685B68122BF1
:10063C0034D0122B0DD8022B2BD0022B04D8002B2C
:10064C0031D0012B1CD048E0032B43D0112B1BD0F5
:10065C0043E0874A934226D0854A934206D8854A7E
:10066C00934220D0844A93421DD036E0834A934271
:10067C0019D0834A934216D0824A934213D02CE06D
:10068C003B68DB683B6228E03B68DB6804333B6219
:10069C0023E03B68DB6808333B621EE03B68DB68A9
:1006AC000C333B6219E03B689B68002B02D104239E
:1006BC003B6212E03B689B68012B05D108233B622F
:1006CC007B68FA691A6108E008233B627B68FA6967
:1006DC005A6102E000233B6200BFBB69FF2B01D8CB
:1006EC007B6801E07B680433FB60BB69FF2B02D89D
:1006FC007B6A9B0002E07B6A083B9B003B61FB68CA
:10070C001A680F213B6901FA03F3DB431A40396A7B
:10071C003B6901FA03F31A43FB681A603B685B6898
:10072C0003F08053002B00F09680574B9B69564A80
:10073C0043F001039361544B9B6903F00103BB60CD
:10074C00BB68524A7B6A9B08023352F823307B61A8
:10075C007B6A03F003039B000F2202FA03F3DB43D3
:10076C007A6913407B617B68494A934213D07B685A
:10077C00484A93420DD07B68474A934207D07B6826
:10078C00464A934201D1032306E0042304E00223EA
:10079C0002E0012300E000237A6A02F003029200D7
:1007AC0093407A6913437B6138497B6A9B08023317
:1007BC007A6941F823203B685B6803F48033002B93
:1007CC0006D0374B1A683649BB6913430B6006E0F9
:1007DC00334B1A68BB69DB43314913400B603B68F0
:1007EC005B6803F40033002B06D02D4B5A682C4960
:1007FC00BB6913434B6006E0294B5A68BB69DB436A
:10080C00274913404B603B685B6803F48013002B53
:10081C0006D0234B9A682249BB6913438B6006E0D0
:10082C001F4B9A68BB69DB431D4913408B603B68C7
:10083C005B6803F40013002B06D0194BDA681849D7
:10084C00BB691343CB6006E0154BDA68BB69DB432D
:10085C0013491340CB607B6A01337B627B6A0F2B9D
:10086C007FF6D4AE00BF2C37BD4680BC704700BFAE
:10087C0000002110000011100000121000003110B7
:10088C000000321000002210001002400000014055
:10089C0000080140000C0140001001400014014010
:1008AC000004014080B485B000AF78600B467B80BB
:1008BC007B689A687B881340002B02D00123FB7362
:1008CC0001E00023FB73FB7B18461437BD4680BC4C
:1008DC00704780B483B000AF78600B467B801346C2
:1008EC007B707B78002B03D07A887B681A6103E0DD
:1008FC007B881A047B681A6100BF0C37BD4680BC2C
:10090C007047000080B586B000AF786000233B6173
:10091C007B681B6803F00103002B00F08780924B6F
:10092C005B6803F00C03042B0CD08F4B5B6803F05B
:10093C000C03082B12D18C4B5B6803F48033B3F59A
:10094C00803F0BD1884B1B6803F40033002B6CD019
:10095C007B685B68002B68D101232DE27B685B68A8
:10096C00B3F5803F06D1804B1B687F4A43F480333C
:10097C0013602EE07B685B68002B0CD17A4B1B68F4
:10098C00794A23F480331360774B1B68764A23F43F
:10099C00802313601DE07B685B68B3F5A02F0CD13E
:1009AC00714B1B68704A43F4802313606E4B1B68B9
:1009BC006D4A43F4803313600BE06B4B1B686A4A3F
:1009CC0023F480331360684B1B68674A23F480233D
:1009DC0013607B685B68002B13D0FFF717FD386141
:1009EC0008E0FFF713FD02463B69D31A642B01D9CB
:1009FC000323E1E15C4B1B6803F40033002BF0D0C4
:100A0C0014E0FFF703FD386108E0FFF7FFFC024636
:100A1C003B69D31A642B01D90323CDE1524B1B68DC
:100A2C0003F40033002BF0D100E000BF7B681B689F
:100A3C0003F00203002B63D04B4B5B6803F00C03F9
:100A4C00002B0BD0484B5B6803F00C03082B1CD11C
:100A5C00454B5B6803F48033002B16D1424B1B686B
:100A6C0003F00203002B05D07B681B69012B01D01E
:100A7C000123A1E13C4B1B6823F0F8027B685B6906
:100A8C00DB00394913430B603AE07B681B69002B90
:100A9C0020D0364B01221A60FFF7B8FC386108E011
:100AAC00FFF7B4FC02463B69D31A022B01D903238E
:100ABC0082E12D4B1B6803F00203002BF0D02A4B74
:100ACC001B6823F0F8027B685B69DB002649134343
:100ADC000B6015E0254B00221A60FFF797FC38617C
:100AEC0008E0FFF793FC02463B69D31A022B01D9AD
:100AFC00032361E11C4B1B6803F00203002BF0D1B4
:100B0C007B681B6803F00803002B39D07B689B695A
:100B1C00002B19D0164B01221A60FFF777FC3861B5
:100B2C0008E0FFF773FC02463B69D31A022B01D98C
:100B3C00032341E10C4B5B6A03F00203002BF0D062
:100B4C00012000F0B1FA1BE0094B00221A60FFF7FC
:100B5C005DFC38610EE0FFF759FC02463B69D31A85
:100B6C00022B07D9032327E1001002400000424268
:100B7C0080044242924B5B6A03F00203002BEAD1E1
:100B8C007B681B6803F00403002B00F0A680002395
:100B9C00FB758B4BDB6903F08053002B0DD1884B1D
:100BAC00DB69874A43F08053D361854BDB6903F0E3
:100BBC008053FB60FB680123FB75824B1B6803F4BD
:100BCC008073002B18D17F4B1B687E4A43F48073D3
:100BDC001360FFF71BFC386108E0FFF717FC0246B7
:100BEC003B69D31A642B01D90323E5E0754B1B68D1
:100BFC0003F48073002BF0D07B68DB68012B06D1EB
:100C0C006F4B1B6A6E4A43F0010313622DE07B6845
:100C1C00DB68002B0CD16A4B1B6A694A23F0010379
:100C2C001362674B1B6A664A23F0040313621CE0D1
:100C3C007B68DB68052B0CD1614B1B6A604A43F067
:100C4C00040313625E4B1B6A5D4A43F0010313629B
:100C5C000BE05B4B1B6A5A4A23F001031362584B9F
:100C6C001B6A574A23F0040313627B68DB68002B72
:100C7C0015D0FFF7CBFB38610AE0FFF7C7FB024644
:100C8C003B69D31A41F28832934201D9032393E092
:100C9C004B4B1B6A03F00203002BEED014E0FFF762
:100CAC00B5FB38610AE0FFF7B1FB02463B69D31A8A
:100CBC0041F28832934201D903237DE0404B1B6AF9
:100CCC0003F00203002BEED1FB7D012B05D13C4B35
:100CDC00DB693B4A23F08053D3617B68DB69002BD3
:100CEC0069D0374B5B6803F00C03082B61D07B6831
:100CFC00DB69022B46D1344B00221A60FFF786FBCE
:100D0C00386108E0FFF782FB02463B69D31A022BDD
:100D1C0001D9032350E02A4B1B6803F00073002B0E
:100D2C00F0D17B681B6AB3F5803F08D1244B5B681C
:100D3C0023F400327B689B68214913434B60204BA2
:100D4C005B6823F474127B68196A7B685B6A0B43DB
:100D5C001B4913434B601C4B01221A60FFF756FBD7
:100D6C00386108E0FFF752FB02463B69D31A022BAD
:100D7C0001D9032320E0124B1B6803F00073002BF6
:100D8C00F0D018E0104B00221A60FFF73FFB3861DF
:100D9C0008E0FFF73BFB02463B69D31A022B01D953
:100DAC00032309E0064B1B6803F00073002BF0D102
:100DBC0001E0012300E0002318461837BD4680BD32
:100DCC0000100240007000406000424280B584B0C8
:100DDC0000AF786039600023FB607E4B1B6803F02A
:100DEC0007033A689A4210D97A4B1B6823F0070222
:100DFC0078493B6813430B60764B1B6803F0070381
:100E0C003A689A4201D00123E0E07B681B6803F04A
:100E1C000203002B20D07B681B6803F00403002B1B
:100E2C0005D06D4B5B686C4A43F4E06353607B68A0
:100E3C001B6803F00803002B05D0674B5B68664A00
:100E4C0043F460535360644B5B6823F0F0027B689F
:100E5C009B68614913434B607B681B6803F001037B
:100E6C00002B6AD07B685B68012B07D15A4B1B683F
:100E7C0003F40033002B15D10123A7E07B685B68DA
:100E8C00022B07D1544B1B6803F00073002B09D1C4
:100E9C0001239BE0504B1B6803F00203002B01D194
:100EAC00012393E04C4B5B6823F003027B685B6887
:100EBC00494913434B60FFF7A9FAF8607B685B68FC
:100ECC00012B12D10AE0FFF7A1FA0246FB68D31AF4
:100EDC0041F28832934201D9032377E03E4B5B68A1
:100EEC0003F00C03042BEED127E07B685B68022B2C
:100EFC001DD10AE0FFF78AFA0246FB68D31A41F2C9
:100F0C008832934201D9032360E0334B5B6803F0D2
:100F1C000C03082BEED110E0FFF778FA0246FB68C1
:100F2C00D31A41F28832934201D903234EE02A4B63
:100F3C005B6803F00C03002BEED1264B1B6803F00F
:100F4C0007033A689A4210D2224B1B6823F007021F
:100F5C0020493B6813430B601E4B1B6803F00703CF
:100F6C003A689A4201D0012330E07B681B6803F099
:100F7C000403002B08D0184B5B6823F4E0627B68F9
:100F8C00DB68154913434B607B681B6803F008034F
:100F9C00002B09D0104B5B6823F460527B681B69F3
:100FAC00DB000D4913434B6000F01CF801460A4B63
:100FBC005B681B0903F00F03084AD35C21FA03F3A7
:100FCC00074A13600020FFF7DFF90023184610379B
:100FDC00BD4680BD0020024000100240A415000850
:100FEC000800002090B48AB000AF2A4B3C1D0FCBF8
:100FFC0084E80F00284B1B883B800023FB610023F7
:10100C00BB6100237B6200237B6100233B62234B8B
:10101C005B68FB61FB6903F00C03042B02D0082B0B
:10102C0003D02DE01E4B3B622DE0FB699B0C03F0C3
:10103C000F0307F12802134413F8243C7B61FB696E
:10104C0003F48033002B13D0144B5B685B0C03F060
:10105C00010307F12802134413F8283CBB617B6998
:10106C000F4A02FB03F2BB69B2FBF3F37B6204E0B1
:10107C007B690C4A02FB03F37B627B6A3B6202E0F6
:10108C00074B3B6200BF3B6A18462837BD4690BCF5
:10109C00704700BF90150008A01500080010024012
:1010AC0000127A0000093D0080B485B000AF786072
:1010BC000A4B1B680A4AA2FB03235B0A7A6802FBF1
:1010CC0003F3FB6000BFFB685A1EFA60002BF9D1DA
:1010DC0000BF1437BD4680BC704700BF080000201D
:1010EC00D34D621080B485B000AF78600C4B5B6858
:1010FC00FB600C4B1B680C4AA2FB03239A0C7B680D
:10110C0002FB03F3BB6000BF054B5A68FB68D31AA4
:10111C00BA689A42F8D800BF1437BD4680BC7047F5
:10112C00001000E00800002083DE1B4380B582B075
:10113C0000AFFFF713F900F02BF800F06FF80A215D
:10114C00012000F00BF903467B600A21012000F01E
:10115C0005F902460A4B1A60094B1A687B68D31AC8
:10116C00084A1360074B1B68074AA2FB0323DB09E1
:10117C001846FFF79BF80246044B1A60E5E700BFE0
:10118C00280000202C000020D34D621030000020DD
:10119C0080B590B000AF07F1180328220021184643
:1011AC0000F0DCF93B1D00221A605A609A60DA608C
:1011BC001A610123BB614FF48033FB6100233B6256
:1011CC000123BB6202237B634FF48033BB634FF478
:1011DC00E013FB6307F118031846FFF793FB034674
:1011EC00002B01D000F0DAF80F237B600223BB60E8
:1011FC000023FB604FF480633B6100237B613B1D4C
:10120C0002211846FFF7E2FD0346002B01D000F047
:10121C00C5F800BF4037BD4680BD000080B586B024
:10122C0000AF07F1080300221A605A609A60DA6076
:10123C001E4B9B691D4A43F0200393611B4B9B691A
:10124C0003F020037B607B68184B9B69174A43F0C3
:10125C0004039361154B9B6903F004033B603B68EB
:10126C0001224FF400711248FFF733FB4FF4007367
:10127C00BB600123FB6000233B6102237B6107F110
:10128C00080319460A48FFF7AFF94FF48063BB60B7
:10129C000023FB6000233B6107F108031946044857
:1012AC00FFF7A2F900BF1837BD4680BD0010024001
:1012BC000008014080B586B000AF786000237B61E8
:1012CC0000233B6122E001224FF400712248FFF71A
:1012DC0000FB7B695B007B610120FFF703FF0022B1
:1012EC004FF400711C48FFF7F4FA4FF480611A4870
:1012FC00FFF7D8FA0346012B05D17B6901337B61DB
:10130C000120FFF7EFFE3B6901333B613B69172B73
:10131C00D9DD0023FB6011E001224FF400710E486F
:10132C00FFF7D7FA0120FFF7DDFE00224FF4007122
:10133C000948FFF7CEFAFB680133FB60FA687B685B
:10134C009A42E9DB7B6983F400037B617B69184675
:10135C001837BD4680BD00BF0008014080B584B081
:10136C0000AF786039600023FB600023BB6009E0AC
:10137C007868FFF79FFF0246FB681344FB60BB686D
:10138C000133BB60BA683B689A42F1DB3B68FA6890
:10139C00B2FBF3F318461037BD4680BD80B400AFE6
:1013AC0000BFBD4680BC704780B485B000AF154B04
:1013BC009B69144A43F001039361124B9B6903F040
:1013CC000103BB60BB680F4BDB690E4A43F08053D3
:1013DC00D3610C4BDB6903F080537B607B680A4B59
:1013EC005B68FB60FB6823F0E063FB60FB6843F029
:1013FC000073FB60044AFB68536000BF1437BD46A2
:10140C0080BC7047001002400000014080B400AF67
:10141C0000BFBD4680BC704780B400AFFEE780B40F
:10142C0000AFFEE780B400AFFEE780B400AFFEE78C
:10143C0080B400AF00BFBD4680BC704780B400AF25
:10144C0000BFBD4680BC704780B400AF00BFBD4636
:10145C0080BC704780B500AFFEF7C6FF00BF80BDF3
:10146C0080B400AF154B1B68144A43F001031360A2
:10147C00124B5A681149124B13404B600F4B1B68AF
:10148C000E4A23F0847323F4803313600B4B1B68D8
:10149C000A4A23F480231360084B5B68074A23F441
:1014AC00FE035360054B4FF41F029A60054B4FF03F
:1014BC0000629A6000BFBD4680BC704700100240BD
:1014CC000000FFF800ED00E0002103E00B4B5B583F
:1014DC00435004310A480B4B42189A42F6D30A4A3D
:1014EC0002E0002342F8043B084B9A42F9D3FFF781
:1014FC00B7FF00F00FF8FFF719FE7047BC15000896
:10150C00000000200C0000200C00002038000020FF
:10151C00FEE7000070B500250C4E0D4CA41BA4106A
:10152C00A54209D100F022F800250A4E0A4CA41B52
:10153C00A410A54205D170BD56F825309847013549
:10154C00EEE756F8253098470135F2E7B415000858
:10155C00B4150008B4150008B81500080346024479
:10156C00934200D1704703F8011BF9E7F8B500BFAF
:10157C00F8BC08BC9E467047F8B500BFF8BC08BC68
:04158C009E467047C0
:1015900002030405060708090A0B0C0D0E0F1010B4
:1015A000010200000000000000000000010203042E
:0415B0000607080919
:0415B40031010008F9
:0415B8000D01000819
:0C15BC00100000000100000000A24A0422
:04000005080014D506
:00000001FF
